:100000000C9435000C94C5000C9447010C945D00D1
:100010000C945D000C945D000C945D000C945D00EC
:100020000C945D000C945D000C945D000C945D00DC
:100030000C945D000C945D000C945D000C945D00CC
:100040000C945D000C945D000C945D000C945D00BC
:100050000C945D000C945D000C945D000C945D00AC
:100060000C945D000C945D007C0111241FBECFEF49
:10007000D8E0DEBFCDBF11E0A0E0B1E0E6E6F3E0FE
:1000800002C005900D92A430B107D9F721E0A4E099
:10009000B1E001C01D92A830B207E1F710E0C5E35E
:1000A000D0E004C02197FE010E94AB01C433D10708
:1000B000C9F70E9485000C94B1010C9400000197CF
:1000C00089F46F3F7F4F71F4809102019091030199
:1000D00060910001709101010E94830170930701FA
:1000E00060930601089584B1866084B982EA8093A2
:1000F000800089E180938100809102019091030149
:100100009093870080938600089584B18E7F84B990
:1001100085B1816085B98FEF87B988B18E7F88B945
:1001200088B18D7F88B988B18B7F88B9109205011D
:10013000109204010E9473008AB18B7F8AB98BB13F
:1001400084608BB98AB1877F8AB98BB188608BB99B
:100150008AE08093690083E08DBB789480910401EC
:10016000909105019093890080938800809104010B
:1001700090910501880F991F90938B0080938A00BE
:100180008AE18A95F1F700C0E9CF1F920F920FB66E
:100190000F9211242F933F934F935F938F939F93CD
:1001A00080910401909105019923C4F088B18E7F5C
:1001B00088B988B18D7F88B988B18B7F88B9209143
:1001C0000401309105018091060190910701820F91
:1001D000931F909305018093040124C09923C4F4D4
:1001E00088B1816088B988B1826088B988B184603B
:1001F00088B9209104013091050180910601909108
:100200000701820F931F90930501809304010AC098
:100210002091060130910701820F931F90930501F1
:100220008093040120910201309103018091060125
:1002300090910701820F931F9C01992314F42F5F63
:100240003F4F3595279540910401509105012417A2
:10025000350721F488B1846088B90EC04817590762
:100260005CF088B1846088B98091020190910301AB
:1002700090930501809304019F918F915F914F911D
:100280003F912F910F900FBE0F901F9018951F92C6
:100290000F920FB60F9211242F933F938F939F933A
:1002A0002091060130910701809104019091050190
:1002B000821B930B9093050180930401821793078F
:1002C00044F488B1846088B9109205011092040149
:1002D0000AC02091020130910301281739071CF050
:1002E00088B18B7F88B99F918F913F912F910F900B
:1002F0000FBE0F901F9018956FEF7FEF81E090E099
:100300000E945F00089597FB072E16F4009407D013
:1003100077FD09D00E94970107FC05D03EF4909527
:1003200081959F4F0895709561957F4F0895AA1B01
:10033000BB1B51E107C0AA1FBB1FA617B70710F0D0
:10034000A61BB70B881F991F5A95A9F78095909502
:10035000BC01CD010895EE0FFF1F0590F491E02D33
:060360000994F894FFCFA0
:04036600140021005E
:00000001FF
